:020000040000FA
:06000000FCEF04F0120009
:060008000DEF04F01200F0
:02002A000000D4
:04002C008350010BF1
:10003000026E8350020B01E0010EE824016E835032
:10004000040B01E0010E040DF3CF00F08350080B08
:1000500001E0010E080DF350300F002401240224AA
:1000600000D01200D9CFE6FFE1CFD9FFC00EF26E6B
:100070009D8AFD0EDBCFE9FFFE0EDBCFEAFF230EEC
:10008000E926000EEA22EF9EAB8E948C948E0C0E25
:10009000AF6EAB88E552E7CFD9FF1200D9CFE6FFAC
:1000A000E1CFD9FFC00EF26E9D88FD0EDBCFE9FFD8
:1000B000FE0EDBCFEAFF230EE926000EEA22EF8ECA
:1000C000AB8E948C948E0C0EAF6EAB88AC8AE552DE
:1000D000E7CFD9FF1200D9CFE6FFE1CFD9FFE65233
:1000E000ABA407D0AE50DF6E0001060E906F20D19A
:1000F00008D0ABA206D0AB980001060E906FAB887B
:1001000017D1AE50DF6E00019051050A01E1E0D039
:10011000010A6AE0070A54E0010A28E0030A15E030
:10012000010A0AE0060A03E0060E906F01D15C0E98
:10013000DF5C01E1906BFCD0480EDF5C03E1010E57
:10014000906F02D0060E906FF3D070DFDF5C04E199
:100150000001020E906F09D05C0EDF5C03E100012C
:10016000906B03D00001060E906FE2D05C0EDF5C56
:1001700002E1906B24D0030E906FFD0EDBCFE9FF00
:10018000FE0EDBCFEAFFEE52DFCFEFFFFD0EDBCF3F
:10019000E9FFFE0EDBCFEAFF230EE926000EEA227E
:1001A000EF9EFD0EDBCFE9FFFE0EDBCFEAFF230E55
:1001B000E926000EEA22800EEF140009EF6EB8D097
:1001C0005C0EDF5C02E1906B0ED0040E906FFD0EB2
:1001D000DBCFE9FFFE0EDBCFEAFF020EE926000EC1
:1001E000EA22DFCFEFFFA4D0FD0EDBCFE9FFFE0E4A
:1001F000DBCFEAFF230EE926000EEA22EF507F0B49
:10020000006E200E005C3AE2FD0EDBCFE9FFFE0E31
:10021000DBCFEAFF030EE926000EEA22E9CF00F069
:10022000EACF01F0FD0EDBCFE9FFFE0EDBCFEAFFE8
:10023000230EE926000EEA22EF507F0B0F01002467
:10024000E96E000E0120EA6EDFCFEFFFFD0EDBCF7F
:10025000E9FFFE0EDBCFEAFF230EE926000EEA22BD
:10026000EF507F0BE82AF36EF3507F0BF36EF46EC2
:10027000800EEF14F310EF6EF45023D0FD0EDBCFA1
:10028000E9FFFE0EDBCFEAFF230EE926000EEA228D
:10029000EF507F0BE806F36EF3507F0BF36EF46EB6
:1002A000800EEF14F310EF6E060E906FFD0EDBCF95
:1002B000E9FFFE0EDBCFEAFF230EE926000EEA225D
:1002C000EF8E5C0EDF5C03E10001050E906F30D015
:1002D0005C0EDF5C03E1040E906F29D0450EDF5CFD
:1002E00024E1FD0EDBCFE9FFFE0EDBCFEAFF230E9C
:1002F000E926000EEA22EF8EFD0EDBCFE9FFFE0EAF
:10030000DBCFEAFF230EE926000EEA22EF507F0B37
:10031000E806F36EF3507F0BF36EF46E800EEF146D
:10032000F310EF6E060E906F02D0060E906F00D0A5
:10033000E552E552E7CFD9FF1200D9CFE6FFE1CF72
:10034000D9FFE652F250DF6EF29EF29CFD0EDBCF3B
:10035000E9FFFE0EDBCFEAFF230EE926000EEA22BC
:10036000EF9E0001210E8F6F9D880A0EAD6EDF504B
:10037000F26EE552E552E7CFD9FF1200D9CFE6FF82
:10038000E1CFD9FF00018F512C0A62E0070A5CE03F
:10039000010A56E00C0A46E0030A40E0010A34E094
:1003A000070A2EE0010A28E0030A22E0FD0EDBCF57
:1003B000E9FFFE0EDBCFEAFF230EE926000EEA225C
:1003C000EF507F0B8F5D5DE2FD0EDBCFE9FFFE0E90
:1003D000DBCFEAFF030EE926000EEA22E9CF00F0A8
:1003E000EACF01F08FC002F0036A02AE40D03ED0E7
:1003F0000D0EAD6E8F2B4AD05C0EAD6E8F2B46D09E
:10040000480EAD6E8F2B42D0FD0EDBCFE9FFFE0E06
:10041000DBCFEAFFEF50AD6E8F2B38D0200EAD6EE4
:100420008F2B34D0FD0EDBCFE9FFFE0EDBCFEAFFD2
:10043000020EE926000EEA22EF50AD6E8F6B26D039
:10044000450EAD6E8F2B22D0200EAD6E8F2B1ED0A1
:10045000FD0EDBCFE9FFFE0EDBCFEAFF230EE92620
:10046000000EEA22EF8E9D98AB8810D003680050F2
:100470000224E96E01500320EA6EEF50AD6E8F2B1F
:1004800004D02A0E8F6F5C0EAD6E00D0E552E7CF20
:04049000D9FF12007E
:0C049400D9CFE6FFE1CFD9FF0D0EE12625
:1004A000010EDB6A020EDB6A030EDB6A040EDB6AF6
:1004B000050EDB6A060EDB6A070EDB6A080EDB6AD6
:1004C000090EDB6A0A0EDB6A600EE66E000EE66E4F
:1004D00032EC00F0E552E552700ED310D36E880E68
:1004E000D56EF29A6F6ACA0E936E7A6A7B683F0E77
:1004F000B86EE00E926EF10E946E1F0E956E030EA6
:10050000966E030EE66E870EE66E270EE66EC5EC5F
:1005100004F0E552E552E552898689888B868C8CF9
:100520008B848B828A98839E819A89808982898430
:100530003CD989801FEC05F01AEC05F0000901E0B8
:10054000FBD70AEC05F0030EF3CFDBFF040EF4CF6C
:10055000DBFF030EDBCF00F0040EDBCF01F0013434
:1005600004E200500308000E015403E289828980EE
:1005700012D0030EDBCF00F0040EDBCF01F001340C
:1005800004E200500108000E015403E289928980C0
:1005900002D089928990000183AFFCD00001839F33
:1005A000040000016251730A01E1E9D0030A74E01A
:1005B000130A54E0080A1DE00F0A19E0120A01E0CC
:1005C000E7D0090EDB6A0A0EDB6A006A016A005096
:1005D00001100CE000016351E66ED950090FE96E7D
:1005E000DACFEAFFE552E750EE6EED6AD3D0817ABA
:1005F000D1D0839E8A980B0EDB6A0C0EDB6A0B0E41
:10060000DBCF00F00C0EDBCF01F0FF0E005C000E24
:10061000015806E20B0EDB2A0C0E01E3DB2AEFD7B2
:100620008B968C9C0B0EDB6A0C0EDB6A0B0EDBCF01
:1006300000F00C0EDBCF01F0FF0E005C000E015845
:1006400006E20B0EDB2A0C0E01E3DB2AEFD78B86CA
:100650008C8C090EDB6A0A0EDB6A9CD08B868C8C34
:100660000B0EDB6A0C0EDB6A0B0EDBCF00F00C0E00
:10067000DBCF01F0FF0E005C000E015806E20B0E0E
:10068000DB2A0C0E01E3DB2AEFD7838E8A98090E52
:10069000DB6A0A0EDB6A7ED0839E8B868C8C0B0E07
:1006A000DB6A0C0EDB6A0B0EDBCF00F00C0EDBCF2F
:1006B00001F0FF0E005C000E015806E20B0EDB2A73
:1006C0000C0E01E3DB2AEFD78A880B0EDB6A0C0ED7
:1006D000DB6A0B0EDBCF00F00C0EDBCF01F0FF0E60
:1006E000005C000E015806E20B0EDB2A0C0E01E343
:1006F000DB2AEFD70B0EDB6A0C0EDB6A0B0EDBCFAF
:1007000000F00C0EDBCF01F0FF0E005C000E015874
:1007100006E20B0EDB2A0C0E01E3DB2AEFD70B0EF1
:10072000DB6A0C0EDB6A0B0EDBCF00F00C0EDBCFAE
:1007300001F0FF0E005C000E015806E20B0EDB2AF2
:100740000C0E01E3DB2AEFD70B0EDB6A0C0EDB6A23
:100750000B0EDBCF00F00C0EDBCF01F0FF0E005CC8
:10076000000E015806E20B0EDB2A0C0E01E3DB2A19
:10077000EFD7090EDB6A0A0EDB6A8A980BD0839EDC
:100780008A988B868C8C090EDB6A0A0EDB6A02D093
:10079000897400D0CFD60D0EE15C02E2E16AE55229
:1007A000E16EE552E7CFD9FF1200D9CFE6FFE1CFE6
:1007B000D9FF020EE126899089928994DE6ADD6A6A
:1007C000DECF00F0DDCF01F0FE0E005C000E015820
:1007D00006E20400DF2A010E01E3DB2AF1D789805B
:1007E00089828984DE6ADD6ADECF00F0DDCF01F028
:1007F000FE0E005C000E015806E20400DF2A010E26
:1008000001E3DB2AF1D7020EE15C02E2E16AE55284
:10081000E16EE552E7CFD9FF1200DACFE4FFE2CF75
:10082000DAFFE9CFE4FFEACFE4FFF6CFE4FFF7CF4A
:10083000E4FFF5CFE4FFF3CFE4FFF4CFE4FFFACF1A
:10084000E4FF00EE04F0020EE80403E3EECFE4FF61
:10085000FBD700EE00F0040EE80403E3EECFE4FF64
:10086000FBD7E652F250200B05E0F250040B02E0F9
:10087000F29418D09D50200B0EE09E50200B0BE000
:1008800089729E9A600EE66E000EE66E6BEC00F0CA
:10089000E552E55207D09D50100B04E09E50100B1E
:1008A00001E09E98E55200EE03F0040EE80403E335
:1008B000E5CFEDFFFBD700EE05F0020EE80403E301
:1008C000E5CFEDFFFBD7E5CFFAFFE5CFF4FFE5CFAE
:1008D000F3FFE5CFF5FFE5CFF7FFE5CFF6FFE5CF77
:0C08E000EAFFE5CFE9FFE5CFDAFF1100E9
:0408EC002A0EF66E6C
:1008F000000EF76E000EF86E00010900F5508A6FC9
:100900000900F5508B6F03E18A6701D03DD00900E3
:10091000F550856F0900F550866F0900F550876F17
:1009200009000900F550E96E0900F550EA6E09006A
:1009300009000900F550886F0900F550896F09001A
:100940000900F6CF8CF0F7CF8DF0F8CF8EF085C090
:10095000F6FF86C0F7FF87C0F8FF0001885302E169
:10096000895307E00900F550EE6E8807F8E2890721
:10097000F9D78CC0F6FF8DC0F7FF8EC0F8FF0001DD
:0A0980008A07000E8B5BBFD7120040
:06098A00D9CFE6FFDACF31
:10099000E6FFE1CFD9FFE2CFDAFFC26AC16A9A6A05
:1009A000B86AB96A996AFD0EDB50040DF3503C0B2E
:1009B000C26EFC0EDB407F0B100B006EFC0EDB509A
:1009C000C00B0010C16EFB0EDB50C06EFD0EDB5085
:1009D000C00B006EFC0EDB501F0B00109A6EFD0E5C
:1009E000DBAA03D09E9C9D8CF28CC280E552E5CFA1
:0809F000DAFFE7CFD9FF120086
:0809F80012EE00F022EE00F007
:100A0000F86A059C76EC04F021EC05F04AEC02F063
:040A1000FBD71200FE
:0C0A1400C450036E026AC3500210F36E5F
:060A200003C0F4FF120008
:0A0A260000EE00F00F0EEE6AEA6227
:040A3000FDD71200DC
:0A0A3400C250020B01E0010E120097
:020A3E00C28272
:020A40001200A2
:020A42001200A0
:020000040030CA
:01000100C836
:0100030032CA
:010006008178
:00000001FF
