:100000000C942C000C9449000C9449000C94490069
:100010000C9449000C9449000C9449000C9449003C
:100020000C9449000C9449000C9449000C9449002C
:100030000C9449000C94A0000C940A010C9400014B
:100040000C9449000C9449000C9449000C9449000C
:100050000C9449000C94490011241FBECFEFD4E04A
:10006000DEBFCDBF11E0A0E0B1E0E2E3F4E002C00A
:1000700005900D92A230B107D9F721E0A2E0B1E0DE
:1000800001C01D92A336B207E1F70E944B000C9409
:1000900017020C940000CF93DF9300D000D0CDB7AF
:1000A000DEB78FB7F8941092C5009BE09093C40020
:1000B000E1ECF0E098E190839EE09093C2009081A3
:1000C000906290839081906490838FBF8FEF81B90D
:1000D00082B9C12CDD24DA94A12CB12CD2B80E94B3
:1000E00096007C01181619069CF40A2D1B2DCE01D2
:1000F00001960E949100882359F08A81882311F08B
:10010000D2B801C0D2B80F5F1F4F0E151F0579F787
:100110001982CA82C394E2CF63E371E00E94B50101
:10012000089563E371E00E946F01089583E391E015
:100130000E940402089567E071E00E946F01089533
:100140001F920F920FB60F9211242F933F934F934C
:100150005F936F937F938F939F93AF93BF93CF934F
:10016000EF93FF938FEF81B992B181E0892782B934
:10017000C091C60040910201509103014115510503
:10018000E1F09A01ABEABAEA0E94080296958795D7
:100190009C01220F331F820F931FFA01E81BF90BFA
:1001A000E05AFE4FC0834F5F5F4F5093030140936F
:1001B00002014530510550F411C0C0935F0181E048
:1001C00090E0909303018093020108C08FE591E0D5
:1001D0000E948C001092030110920201FF91EF9196
:1001E000CF91BF91AF919F918F917F916F915F91CF
:1001F0004F913F912F910F900FBE0F901F90189528
:100200001F920F920FB60F9211240F900FBE0F90F6
:100210001F9018951F920F920FB60F9211242F93D3
:100220003F934F935F936F937F938F939F93AF937E
:10023000BF93EF93FF93CF93DF9300D000D0CDB760
:10024000DEB78FEF81B992B182E0892782B98091C0
:100250000001909101010397D0F0CE0101960E9418
:100260009B00882371F08A819B81AC81809304017B
:1002700090930501A09306011092010110920001D4
:1002800006C0E1ECF0E080818F7D808311C0809119
:100290000001909101019C012F5F3F4F30930101BC
:1002A00020930001FC01EC5FFE4F80818093C6002B
:1002B0000F900F900F900F90DF91CF91FF91EF91E2
:1002C000BF91AF919F918F917F916F915F914F916E
:1002D0003F912F910F900FBE0F901F901895CF93C5
:1002E000FB01CFB7F89420813181232B19F4CFBFC4
:1002F00080E039C0228133814CE2429FD001439F8C
:10030000B00D1124A60FB71F4D915D916D917C9199
:10031000DC014D935D936D937C93139742815381E0
:100320004F5F5F4F9A01ADECBCEC0E9408029695BE
:10033000879596958795969587959C01220F331FF3
:10034000880F991F880F991F880F991F820F931F7D
:10035000481B590B5383428380819181019791837C
:100360008083CFBF81E0CF910895EF92FF921F93DA
:10037000CF93DF937C01FB011FB7F894208131817B
:100380002A30310518F01FBF80E038C04281538108
:10039000420F531F9A01ADECBCEC0E9408029C0175
:1003A000369527953695279536952795C901880F57
:1003B000991F220F331F220F331F220F331F280FC5
:1003C000391F421B530B4F5F5F4FEA01CC0FDD1FFC
:1003D000CC0FDD1F9E012E0F3F1FE7018881998101
:1003E000AA81BB81E90188839983AA83BB83808129
:1003F00091810196918380831FBF81E0DF91CF912E
:100400001F91FF90EF900895FC01808191810895E4
:10041000A29FB001B39FC001A39F700D811D112445
:10042000911DB29F700D811D1124911D0895F894A6
:02043000FFCFFC
:020432000300C5
:00000001FF
