:020000040000FA
:0600000098EF00F0120071
:0600080065EF00F012009C
:02002A000000D4
:04002C002A0EF66E34
:10003000000EF76E000EF86E00010900F550656FB6
:100040000900F550666F03E1656701D03DD00900F6
:10005000F550606F0900F550616F0900F550626F4F
:1000600009000900F550E96E0900F550EA6E090033
:1000700009000900F550636F0900F550646F09002D
:100080000900F6CF67F0F7CF68F0F8CF69F060C0ED
:10009000F6FF61C0F7FF62C0F8FF0001635302E1A1
:1000A000645307E00900F550EE6E6307F8E2640759
:1000B000F9D767C0F6FF68C0F7FF69C0F8FF000115
:0A00C0006507000E665BBFD7120053
:0600CA00DACFE4FFE2CFF3
:1000D000DAFFE652D9CFE6FFE1CFD9FFE6529E8A9A
:1000E000010E000910E0AECF6AF0AECF6CF0260E24
:1000F00000016C5D02E1828A8298250E6D5D02E14D
:10010000829A82889E9AE552E552E7CFD9FFE5525E
:10011000E5CFDAFF11009498949A828AAB8E948C82
:100120009482400EAF6EAB88C00EF26E9D8A1200B4
:1001300012EE00F022EE00F0F86A019C16EC00F0DE
:080140008BEC00F0FDD712006A
:00000001FF
