:020000040000fa
:080000000001040000000000f3
:020000040000fa
:1000080094010000a60b0000940100009401000078
:100018009401000094010000940100009401000084
:10002800940100009401000094010000180b0000e6
:100038009401000094010000940100009401000064
:100048009401000094010000940100009401000054
:100058009401000094010000940100009401000044
:100068009401000094010000940100009401000034
:100078009401000094010000940100009401000024
:10008800460b0000780b000094010000940100006a
:100098009401000094010000940100009401000004
:1000a80094010000940100009401000094010000f4
:1000b80094010000940100009401000094010000e4
:1000c80094010000940100009401000094010000d4
:1000d80094010000940100009401000094010000c4
:1000e80094010000940100009401000094010000b4
:0800f8009401000094010000d6
:020000040000fa
:1001080094010000a60b0000940100009401000077
:100118009401000094010000940100009401000083
:10012800940100009401000094010000180b0000e5
:100138009401000094010000940100009401000063
:100148009401000094010000940100009401000053
:100158009401000094010000940100009401000043
:100168009401000094010000940100009401000033
:100178009401000094010000940100009401000023
:10018800460b0000780b0000940100009401000069
:100198009401000094010000940100009401000003
:1001a80094010000940100009401000094010000f3
:1001b80094010000940100009401000094010000e3
:1001c80094010000940100009401000094010000d3
:1001d80094010000940100009401000094010000c3
:1001e80094010000940100009401000094010000b3
:0801f8009401000094010000d5
:020000040000fa
:100200006f8620000eff20000e0188000000000015
:1002100000012000200288000c00070040f52000ab
:100220000100200011000700000020000000e00095
:100230000200320000000200000000004c04020036
:10024000000000000040da000000fe004440a90069
:10025000400220000000e000030032000000200007
:10026000a00188004440a800000006009101880019
:10027000800078000000eb0015003700e2804000ad
:1002800032a0b4009101ba00e280400032a0b40074
:100290009102ba00e280400032a0b4000002eb00fc
:1002a000472bde00f507b200602ce10004003a00a5
:1002b0000059eb008301e900fdff3e000400370018
:1002c0006128e100010032000082eb000400070019
:1002d0001101ba000200e000e8ff3a000000060049
:1002e0003159ba008301e9000c0032002159ba00eb
:1002f0008301e900080032000400e00003003a0036
:10030000e280400032a0b400f5ff370011d9ba00f6
:100310008301e900faff3a008100e800e180400033
:1003200032a0b400000006000040da000000fe0029
:1003300003f0a200889fbe008a9fbe008c1f780039
:10034000b8000700bf0033006450e1004f003200e6
:100350006420e1005200320003826c0007003b0081
:100360000905d0000306d000820f54000c065d0082
:10037000020039000200320089017800030678008b
:100380008582550004003d000003fd008103fd004f
:100390008502ea008b854200840f720002003b0058
:1003a00060001000e08018006011b8000005eb004c
:1003b0007a28e1000a00390006007800c75ddd00f8
:1003c000f707b200878075002d0037008281710029
:1003d0000a017800610560008180d1000080d300af
:1003e0008502e900f9ff3b000604400087844800cd
:1003f00002003b0060041400e0841c000988a30094
:10040000070032008a8171008281710061016400fd
:100410008904d1000884d3008b05e8001700370059
:100420000978a30013003a000b00e0001300340029
:100430008b05e9000804440089844c000a447400d8
:100440000978a3000d003a000b00e000070034001b
:100450008b05e9000804440089844c0001003a003f
:100460000b0020000978a300f7ff32000001eb0029
:1004700002003700828171000a0178002e00070017
:100480000cf0a70001f0a000770037006420e10025
:1004900002003a00838f6c00770033000801be0031
:1004a0000200be00700037000001be0048000700d7
:1004b0000470a70003f0a1006509b1001600320026
:1004c0000d0035006828e10006003500f0ff2f0020
:1004d000f1ff27000300e00013003b0001002800ab
:1004e0000000050000004000818048008502e9000e
:1004f000fcff3a0008003700f88f420002003c0081
:100500008000eb00000005008100d1000080d300d6
:100510008502e800fcff3a000300e00002003b0017
:1005200060001000e0801800000006004f89de0027
:10053000820178008700370081002000618055002b
:100540000b003d000b00200061fe2f000100e100c8
:100550001d00340082817100610164008904d100b2
:100560000884d3000000e800faff3a007100200080
:1005700061006400030070000200600009003200a6
:1005800061044400e0844c000988a50005003200a5
:100590008b05e8006808e10002003a008904d100f8
:1005a0000884d300f20f20000258e10005003d004e
:1005b000c75ddd00f907b20089807500080078008a
:1005c000000006000bf827008b00780000000500f3
:1005d000c70ade00f107b200f50fb20008003200d2
:1005e000e1cf4200020032000170a00024000500ab
:1005f000810f70000100320004080500440005006e
:10060000810f700002003a00140005008502e90025
:100610000000400081c04800fcff3b000170a000ca
:10062000240005000004be00e9ff07000003be002f
:100630000405be000200be00e5ff0700844f750000
:10064000000006000200be006450e1000500360014
:100650006420e100020036000968a30001003a00ae
:100660000800be000160a0004f0678004f05be00e4
:100670004f04be0000000600f0ff2f00f1ff27002e
:10068000f9ff3700889fbe008a9fbe008c1f78004c
:10069000e4ff0700ebff330003866c006450e100c9
:1006a000240032006420e100270032006150e100a4
:1006b000220032006120e100210032008b854200df
:1006c000eb07b1000134b800003ab800080442005a
:1006d00089844a00013ab8000030b80088804000a0
:1006e00009014a00040033000000400081804800f6
:1006f000020149008b05e900c909dd008301700092
:100700000100320013002000c814de004814dd0090
:100710004709de001200b200c808de00088470003d
:1007200085ff070001f0a1000cf0a70001f0a00078
:10073000cdff37006120e100cfff32000801be008d
:100740000200be00f7ff37006150e100fcff3a00f5
:10075000c9ff3700881f7800030478000300e00019
:1007600007003d0060001000e080180060011900e3
:10077000e081190002003b0001f02d00030037006a
:100780000400070008f0a70001f0a0004f04780063
:1007900000000600889fbe008a9fbe000082700095
:1007a0000402710004827100260032000004be00c1
:1007b0000200be006011b8006b0920009502200005
:1007c0000182cf000a0039000541b1000082cf004c
:1007d000070039000541b1000982cf00040039004b
:1007e0000541b1000882cf00010039000541b10088
:1007f00005425200120032000a003b008281710063
:10080000610164008100d1000080d3008984d3009d
:100810000884d3008b05e8000442e800f7ff3a00a3
:10082000070037000804440089844c000000480099
:10083000818048008b05e9000442e900f9ff3a0095
:100840003dff07004f05be004f04be00000006003c
:020000040000fa
:10085000eeb30000ff0100003f0000002f08000081
:100860003b0200002f0200003e2000003e08000076
:100870003b2000003f0000003f0000003b20000044
:100880003e0800003e2000002f0200003b02000056
:080890002f0800003f000000ea
:020000040000fa
:100898000000fa00143a800004c0a00004d0a100af
:1008a800143a8800143a80000460a1000470a10082
:1008b800143a880000000000153a80000402200065
:1008c80004826200e00f5200fbff3200ae02070014
:1008d800c1020700e802070044c0b30004407800e2
:1008e80056e8b70024030700441680004822de00bb
:1008f800614262008482fb00441680004722de00c9
:10090800614262000482fb00040242000482420049
:10091800444288000c03070061020700ca62a9006c
:100928000200370004148000a442880004158000e7
:1009380061026200e00f5200faff3200a542800017
:1009480044062000848f52000f003600e4428000e5
:100958000402e800e4428800e4428000e90f520003
:1009680006003400ca02a900f4032000a40e88007f
:100978000002eb00f442880011003700ca02a80008
:10098800760007000e003700f4428000f30f520093
:1009980007003c00f44280000402e800f4428800aa
:1009a800ca02a900f4032000a40e8800040037003e
:1009b8000002eb00e4428800ca02a80067000700b2
:1009c800a416800004427800614262000482fb00a1
:1009d8000402420084027800041780004622de00e8
:1009e800614262000482fb000482420004427800f3
:1009f8000442420084427800a41680004222de00ad
:100a08006142620004c24200044078004ae8b7002c
:100a1800a484200014427800e04f52000400320001
:100a2800a484200014427800e74f520002003a00e4
:100a3800ca22a90001003700ca22a8006485200044
:100a4800144278000482fb006102620004427800cc
:100a5800e04f52000e0032003542800004002800aa
:100a680004826200e00f5200090032007485200001
:100a780014427800e14f520005003a0040822000fd
:100a8800830407000042eb000440780057e8b700f1
:100a9800154180000400280004826200e00f520023
:100aa8002c003200058020009542780074c7b300fe
:100ab80084cf520027003a000060fe0023e8a90016
:100ac80024802000144278000482fb0035062000b0
:100ad800850f52000b00320075072000850f520069
:100ae80019003a00444280008482e8000480200013
:100af80004824200144290000440780058e8b7008d
:100b0800140037006585200095427800e4cfb300d3
:100b180004c262000440780056e8b7003480200020
:100b2800144278008482fb0044428000848f520083
:100b380007003a00448020001442780004407800fe
:100b480056e8b70003003700000000000100370036
:100b5800000000000000000074ff37002000fa00c9
:100b6800c042280007000900301f78000e01b100bc
:100b780070024700c543280007000900351a7800ad
:100b8800a416800004427800614262000482fb00df
:100b98000402420084027800041780004622de0026
:100ba800614262000482fb00048242000442780031
:100bb8000442420084427800a41680004222de00eb
:100bc8006142620004c24200044078004ae8b7006b
:100bd8009485200014427800e04f520008003a0043
:100be800a4842000144278000482fb00040242001e
:100bf80004024700040a9000a40e88000a00370087
:100c08009485200014427800e14f520006003a0013
:100c1800a4842000144278000482fb0004024200ed
:100c28006e027a00a40e88000080fa000000060018
:100c38002000fa00889fbe00700f98000002eb00a9
:100c4800340798000002eb00040f78006022b80017
:100c580044079800550798000002eb001407980015
:100c68003009800030079800040028003409880003
:100c78003e029000e00f520005003d00be029000c9
:100c88000400280004824200040f780004003700a2
:100c9800be0290000400280004824200040f78007d
:100ca8001e0fea0084852000144278000403fb002c
:100cb800cfb3de00423add00ce32de00850272009c
:100cc8004232dd0064079800750798001e0278001c
:100cd800cfa2de006e039000fe03900004025300d2
:100ce80085825b004407980055079800644280009d
:100cf80075428000840278004e029000048242000f
:100d0800240798008442800095428000840278007d
:100d18004e02900004825200040f98006442800042
:100d280075428000e00f5200e08f5a000a0034003c
:100d38004e029000de029000e00f5200e08f5a0051
:100d4800050034002e029000e00f520002003d0022
:100d5800f4ff270024079800644280007542800051
:100d6800e00f5200e08f5a000a003d004e0290004a
:100d7800de029000e00f5200e08f5a0005003d00af
:100d88002e029000e00f52000200340004002800f8
:100d9800240798000400200005172400140f980069
:100da800250f98000400200005f82300340f980050
:100db800450f980004002000050a2400540f9800ed
:100dc800650f98004e009000de009000d5fd0700ea
:100dd8000002be001e099000ae0990000400be008b
:100de80026fe07000002be000404be002e0290008a
:100df800cfa2de000400be00cafd07000002be004c
:100e08003e099000ce0990000400be001bfe0700ba
:100e18000002be000401be000800be0043fd07003a
:100e28000002be000404be000e0a9000cfa2de003d
:100e38000400be00bbfd07000002be005e09900072
:100e4800ee0990000400be000cfe07000002be0080
:100e58000401be000800be0034fd07000002be0009
:100e68000400be008efd07000002be0014079800b3
:100e78002e029000cfa2de006442880075428800ee
:100e88002e029000cfa2de0084428800954288009e
:100e9800542184009e029000848f52000200340086
:100ea8005121840011079800542184008402ea002b
:100eb8001e029000848f52000300340054218400e5
:100ec8000402ea00140798001e029000e00f520086
:100ed8000400350014c0b3000440780059e8b70096
:100ee800060037001e0290000402ea00140798006a
:100ef8000042eb000440780059e8b700f53f2000b5
:100f08001e02900004825200140798001e029000ee
:100f180004024200140798001e029000b40e8800d4
:100f28001e029000c40e88001e029000d40e880095
:100f380064852000144278000482fb00610262008c
:100f480004427800e04f5200d20032007e0a90003e
:100f5800941290000400280004826200e00f5200fe
:100f6800cc0032007485200014427800e04f520013
:100f7800c8003a007e0a9000141290004822de0051
:100f88000474a1000483fb009e027800c8aade0056
:100f980085427800fe0b9000068343003543980095
:100fa8000442e8000474a100fe0a90000483fb00d8
:100fb800f4072000040263004822dd009513900026
:100fc800f60f280006836300040273009412980049
:100fd8007e0a9000141290004822de000474a100da
:100fe8000483fb009e02780085427800fe0b900087
:100ff80006834300354398000442e8000474a100c6
:10100800fe0a90000483fb00f4072000040263003a
:101018004822dd0095139000f60f28000683630030
:1010280004027300941298007e0a90001412900033
:101038004822de000474a1000483fb009e02900095
:10104800c8aade0085427800fe0b900006834300a4
:10105800354398000442e8000474a100fe0a900099
:101068000483fb00f4072000040263004822dd002b
:1010780095139000f60f280006836300040273009e
:10108800941298007e0a9000141290004822de0004
:101098000474a1000483fb009e029000854278003e
:1010a800fe0b900006834300354398000442e80095
:1010b8000474a100fe0a90000483fb00f4072000da
:1010c800040263004822dd0095139000f60f280003
:1010d8000683630004027300941298007e0a90004d
:1010e800141290004822de00044378000674a10020
:1010f8008683fb006e029000fe029000e00f520013
:10110800e08f5a0002003d0063024200e0824a007c
:10111800ce28dd004222de0004827000c2aade0072
:1011280004427800fe0a900087824200b442980088
:101138000642e8000474a100fe0a90000483fb0044
:10114800f4072000040263004822dd009513900094
:10115800f60f2800068363000402730094129800b7
:1011680064852000144278000482fb006202620059
:10117800e00f5200420032007e0a900014129000e4
:101188004822de000474a1000483fb0015862000b9
:1011980095427800fe0b9000068343003543980083
:1011a8000442e8000474a100fe0a90000483fb00d6
:1011b800f4072000040263004822dd009513900024
:1011c800f60f280006836300040273009412980047
:1011d8007e0a9000141290004822de000474a100d8
:1011e8000483fb002586200095427800fe0b9000c2
:1011f80006834300354398000442e8000474a100c4
:10120800fe0a90000483fb00f40720000402630038
:101218004822dd0095139000f60f2800068363002e
:1012280004027300941298007e0a90001412900031
:101238004822de000474a1000483fb0035862000e8
:1012480095427800fe0b90000683430035439800d2
:101258000442e8000474a100fe0a90000483fb0025
:10126800f4072000040263004822dd009513900073
:10127800f60f280006836300040273009412980096
:1012880074852000144278000442e8000440780085
:1012980057e8b7004f04be000080fa0000000600bf
:1012a8000000fa000002eb00b4108800f4022000ed
:1012b800f4108800008020005801070040822000b8
:1012c8005f0107000042eb000440780057e8b700d0
:1012d80005e1a9000421a90004c1a900240880008f
:1012e8000440a1000450a000240888000002eb007c
:1012f8000408880045218400d442800011000900b8
:101308008482d800000278006a22b90004027800ba
:1013180014088800ff1ffc0081e0a9000405800074
:101328000440a1000450a1000460a0000405880046
:10133800a404800004c0a00004d0a10004e0a00020
:10134800a4048800040580000400a1000410a00083
:101358000420a000040588008700a9008720a900b0
:101368008460a9008c60a8008f00a8000002eb0030
:101378009402880017e2a8001942a80005e1a80015
:101388000080fa00000006000000fa000082eb006e
:1013980044158800a8c2a900041f2000341688003c
:1013a8000400240064168800f400200094168800c5
:1013b80004102000c416880004052000f4168800d4
:1013c800d1a2a900d1e2a900e202a900e222a80064
:1013d8000080fa00000006000000fa00040e8000f9
:1013e8000400a1000410a100040e8800040e80006f
:1013f8000420a1000430a100040e8800040e80001f
:101408000440a1000450a1000460a1000470a100e0
:10141800040e8800f43f2000240e8800c901a800ab
:10142800c921a800c941a800c881a800c8a1a8006e
:10143800c8c1a800c801a800c821a800c841a800c0
:10144800ca41a800ca21a900ca01a9000002eb00ec
:10145800b40e88000002eb00c40e88000002eb0006
:10146800d40e8800f4032000a40e8800c1e1a8006f
:101478000080fa00000006000000fa00a1e2a900be
:101488001415800004d0a10004e0a10004f0a1001c
:1014980014158800a4e2a9002515800004fc2f007b
:1014a80004826200f400b30024158800141580003b
:1014b8000480a1000490a10014158800a342a9008b
:1014c800a682a900341580000400a1000410a00021
:1014d8000420a0000430a100341588000415800001
:1014e8000450a0000460a0000470a0000415880047
:1014f800a042a80025158000f40f2e008482620007
:10150800041020000482720024158800041580004d
:101518000480a1000490a10004158800141580001f
:101528000420a1000430a1000440a1000450a1003f
:1015380014158800a222a900a202a900a1e2a8000d
:101548000080fa00000006000000fa000082eb00ac
:101558004409880004002800340988001409800020
:101568000480a0000490a00004a0a0001409880032
:101578000080fa00000006000200fa00ca62a80013
:10158800ca42a800ca22a8000042eb0014479800eb
:101598000a0037000042eb00044f780001003700d2
:1015a8001e4fe8001e427800e14f4200fcff3a005f
:1015b8001e4290000442e800144798001e42900022
:1015c800ef4f5200f3ff3600ca62a900ca42a900d1
:1015d800ca22a9000042eb00144798000a0037000d
:1015e8000042eb00044f7800010037001e4fe8006e
:1015f8001e427800e14f4200fcff3a001e42900074
:101608000442e800144798001e429000ef4f520031
:10161800f3ff3600ca62a800ca42a800ca22a8007e
:101628000080fa00000006003600f800809fbe0027
:10163800829fbe00849fbe00869fbe003400f800d3
:1016480000002000a00188000000fa00ff1ffc0035
:101658008460a9000002eb00940288004082200008
:1016680073fd07000080fa003400f9004f03be0044
:101678004f02be004f01be004f00be003600f90009
:10168800004006003600f800809fbe00829fbe0022
:10169800849fbe00869fbe003400f8000000200032
:1016a800a00188000000fa00ca42a900ff1ffc0040
:1016b8008700a9000002eb00940288000080200047
:1016c80067000700ca42a8000080fa003400f90049
:1016d8004f03be004f02be004f01be004f00be00c8
:1016e8003600f900004006003600f800809fbe0072
:1016f800829fbe00849fbe00869fbe003400f80013
:1017080000002000a00188000000fa00ff1ffc0074
:101718008720a9000002eb00940288004082200084
:101728008c0107000080fa003400f9004f03be0066
:101738004f02be004f01be004f00be003600f90048
:10174800004006003400f800881f780008002000d8
:10175800a80188004f0478000000fa008020a90042
:101768000080fa003400f900004006000000fa008a
:101778000042eb000440780063e8b700348620009c
:10178800144278000440780062e8b70024862000fc
:10179800144278000440780061e8b7000080fa003d
:1017a800000006000000fa00a41680004322de00b4
:1017b800614262000482fb006602420004024200a9
:1017c80084027800a41680000402d10061426200fd
:1017d8000482fb0004824200040242008402780072
:1017e800d41680004822de00614262000482fb00b9
:1017f8000482420004427800044242008442780095
:10180800741680004e22de006142620004c242006b
:10181800044078000080fa00000006000200fa0088
:10182800000f7800d1ff07009e0278001512900083
:1018380004f0a100941298000080fa00000006004d
:101848000200fa00000f78009e027800151290003e
:1018580004f0a000941298000080fa00000006002e
:101868000400fa0010079800c410800064026200a7
:10187800e00f520005003200e4108000044f7800a9
:101888007400200024438800ff003700c410800043
:1018980062026200e00f52000500320017e2a90060
:1018a800740020002443880017e2a800f6003700df
:1018b800e4108000044f78002443800005002000d5
:1018c8007600200007002000860f5200878f5a00fc
:1018d800e6003e00046001000e0037002e003700cd
:1018e800430037005c0037001e0037006c003700eb
:1018f8009b00370000003700c4c5b3009e42780043
:1019080084cf5200dd003a000002eb002443880037
:10191800dd00370084c4b3009e42780084cf5200b3
:101928000d003a004400200024438800148620005b
:10193800144278000442e8000440780061e8b700e7
:101948001486200014427800e04f5200cd003a007f
:1019580086ff0700cc00370074002000244388006d
:10196800c9003700c4c5b3009e42780084cf520036
:1019780003003a000002eb0024438800c20037004d
:101988001ec2ea009e0290009442980014002000b3
:1019980024438800bc00370082ff0700004278001b
:1019a8009e4f520008003a001e0290001442900018
:1019b8001e426a009e029000944298002400200073
:1019c80024438800b0003700c4c5b3009e427800a5
:1019d80084cf520003003a000002eb002443880041
:1019e800a90037007400200024438800a6003700af
:1019f800c4c5b3009e42780084cf520003003a0069
:101a08000002eb00244388009f0037001e0290006c
:101a1800144290001e426a009e0290009442980070
:101a28001e0290001e4a78009e0290001512900037
:101a380004f0a100941298001e0290001413900064
:101a4800f50f280085026300151298003400200065
:101a5800244388008c003700c4c5b3009e42780038
:101a680084cf520003003a000002eb0024438800b0
:101a7800850037001e029000144290001e426a0042
:101a88009e029000944298001e0290009e427800a8
:101a98002542980054002000244388007a0037002b
:101aa8001e029000141290004822de000474a10067
:101ab8000482fb00ff0f520026003c001e0290002b
:101ac800141290004822de000474a1000482fb0076
:101ad8009e029000048242001e4078003042980026
:101ae8001e029000141290004822de000474a10027
:101af8000442e8000474a1009e0290000483fb00e5
:101b0800f4072000040263004822dd0095139000ca
:101b1800f60f2800068363000402730094129800ed
:101b2800c4c5b3009e42780084cf520003003a0037
:101b38006400200024438800530037001e029000f0
:101b4800144290001e426a009e029000944298003f
:101b58004d00370074002000244388004a003700f5
:101b6800c4c5b3009e42780084cf520008003a00f2
:101b78001e029000144290001e426a009e029000cd
:101b88009442980054002000244388003e00370007
:101b980054c4b3009e42780084cf520030003a000b
:101ba8001e02900014429000e04f52001f003a00bd
:101bb8009e0290001512900004f0a0009412980064
:101bc80024862000144278000442e800044078008b
:101bd80062e8b7001e029000141290004822de004e
:101be8000474a1000442e9000474a1009e0290005c
:101bf8000483fb00f4072000040263004822dd0090
:101c080095139000f60f2800068363000402730002
:101c1800941298002486200014427800e04f520065
:101c28000c003a00d1fe07000a0037003486200075
:101c3800144278000442e8000440780063e8b700e2
:101c48003486200014427800e04f520001003a0028
:101c5800c6fe070074002000244388000a003700ed
:101c68007400200024438800070037007400200017
:101c78002443880000000000030037000000000033
:101c880001003700000000000080fa000000060094
:101c98000400fa00100798009e0290000042eb0032
:101ca800944298000042eb00044f78000c00370083
:101cb8001e029000944290001e4078000082fb00b3
:101cc8001e0390000482e8000402430014429000be
:101cd80004c26a009e029000944298001e4fe800d9
:101ce8001e4278008482fb001e02900014129000ad
:101cf8004822de000474a1000482fb00848f520095
:101d0800ebff35001e0290001442900004c2ea0066
:101d18009e02900094429800ff1ffc009e029000d3
:101d28001512900004f0a100941298008f20a800ca
:101d3800c4052000d410880014c0b3000440780003
:101d480060e8b7000002eb00940288000080fa0007
:101d5800000006000400fa00100798003400200074
:101d6800040f780004862000144278000402fb0067
:101d7800e10f520003003200e20f5200040032006b
:101d88000800370084042000d41088003d00370084
:101d98001e029000144290000482fb00d4108800b8
:101da8003800370004862000144278008402fb00c3
:101db8001e029000141290004822de000474a10054
:101dc8000482fb001e024200848f52000b003d007b
:101dd80004862000144278000402fb001e02520010
:101de8009e0290000482e80004824200144290009f
:101df8000482fb00d41088002200370004862000eb
:101e0800144278008402fb001e0290001412900015
:101e18004822de000474a1000482fb001e02420076
:101e280004825200e00f520003003200e10f52001a
:101e38000400320006003700c4052000d4108800d2
:101e48001000370054042000d41088000d0037001b
:101e58001e02900014139000f50f280085026300fd
:101e6800151298009e0290001512900004f0a00030
:101e780094129800ff1ffc008f20a9000002eb00bd
:101e88009402880004862000144278000442e80086
:101e98000440780060e8b7000080fa0000000600ff
:020000040000fa
:101ea800000800005600000000000000560800006e
:101eb8000a000000020000000000000000a000006e
:101ec8000000140000000000600800000600000088
:081ed800000000000000000002
:020000040000fa
:0200000401f009
:04000000f3bf00004a
:020000040000fa
:0200000401f009
:04000400ff7f00007a
:020000040000fa
:0200000401f009
:040008007cfe00007a
:020000040000fa
:0200000401f009
:04001400ffff0000ea
:020000040000fa
:0200000401f009
:04001800ffff0000e6
:00000001FF
