S00F000043707044656D6F2E737265636D
S11300000C942C000C9436000C9436000C9436009E
S11300100C9436000C9436000C9436000C94360084
S11300200C9436000C9436000C9436000C94360074
S11300300C9436000C9436000C9436000C94360064
S11300400C9436000C9436000C9436000C94360054
S11300500C9436000C94360011241FBECFEFD4E06C
S1130060DEBFCDBF0E9438000C946A000C940000DF
S11300708FEF87B981E088B980E090E057E040E0F5
S113008070E060E010C02FE936E8E1E02150304034
S1130090E040E1F700C0000028B1220F28B9019622
S11300A002C0872F962F873091056CF3852F942FEC
S11300B02FE936E8E1E021503040E040E1F700C0AC
S11300C0000028B130E03595279528B901970097AD
S10B00D079F7E7CFF894FFCFA4
S9030000FC
